{
  "contractName": "RLC",
  "abi": [
    {
      "constant": true,
      "inputs": [],
      "name": "name",
      "outputs": [
        {
          "name": "",
          "type": "string"
        }
      ],
      "payable": false,
      "stateMutability": "view",
      "type": "function"
    },
    {
      "constant": true,
      "inputs": [],
      "name": "totalSupply",
      "outputs": [
        {
          "name": "",
          "type": "uint256"
        }
      ],
      "payable": false,
      "stateMutability": "view",
      "type": "function"
    },
    {
      "constant": true,
      "inputs": [],
      "name": "decimals",
      "outputs": [
        {
          "name": "",
          "type": "uint8"
        }
      ],
      "payable": false,
      "stateMutability": "view",
      "type": "function"
    },
    {
      "constant": true,
      "inputs": [],
      "name": "initialSupply",
      "outputs": [
        {
          "name": "",
          "type": "uint256"
        }
      ],
      "payable": false,
      "stateMutability": "view",
      "type": "function"
    },
    {
      "constant": true,
      "inputs": [],
      "name": "version",
      "outputs": [
        {
          "name": "",
          "type": "string"
        }
      ],
      "payable": false,
      "stateMutability": "view",
      "type": "function"
    },
    {
      "constant": true,
      "inputs": [],
      "name": "owner",
      "outputs": [
        {
          "name": "",
          "type": "address"
        }
      ],
      "payable": false,
      "stateMutability": "view",
      "type": "function"
    },
    {
      "constant": true,
      "inputs": [],
      "name": "symbol",
      "outputs": [
        {
          "name": "",
          "type": "string"
        }
      ],
      "payable": false,
      "stateMutability": "view",
      "type": "function"
    },
    {
      "constant": true,
      "inputs": [],
      "name": "locked",
      "outputs": [
        {
          "name": "",
          "type": "bool"
        }
      ],
      "payable": false,
      "stateMutability": "view",
      "type": "function"
    },
    {
      "constant": false,
      "inputs": [
        {
          "name": "newOwner",
          "type": "address"
        }
      ],
      "name": "transferOwnership",
      "outputs": [],
      "payable": false,
      "stateMutability": "nonpayable",
      "type": "function"
    },
    {
      "anonymous": false,
      "inputs": [
        {
          "indexed": true,
          "name": "from",
          "type": "address"
        },
        {
          "indexed": true,
          "name": "to",
          "type": "address"
        },
        {
          "indexed": false,
          "name": "value",
          "type": "uint256"
        }
      ],
      "name": "Transfer",
      "type": "event"
    },
    {
      "anonymous": false,
      "inputs": [
        {
          "indexed": true,
          "name": "owner",
          "type": "address"
        },
        {
          "indexed": true,
          "name": "spender",
          "type": "address"
        },
        {
          "indexed": false,
          "name": "value",
          "type": "uint256"
        }
      ],
      "name": "Approval",
      "type": "event"
    },
    {
      "constant": false,
      "inputs": [],
      "name": "FaucetRLC",
      "outputs": [],
      "payable": false,
      "stateMutability": "nonpayable",
      "type": "function"
    },
    {
      "constant": false,
      "inputs": [
        {
          "name": "_to",
          "type": "address"
        },
        {
          "name": "_value",
          "type": "uint256"
        }
      ],
      "name": "refill",
      "outputs": [
        {
          "name": "",
          "type": "bool"
        }
      ],
      "payable": false,
      "stateMutability": "nonpayable",
      "type": "function"
    },
    {
      "constant": false,
      "inputs": [
        {
          "name": "_giver",
          "type": "address"
        },
        {
          "name": "_spender",
          "type": "address"
        },
        {
          "name": "_value",
          "type": "uint256"
        }
      ],
      "name": "forceApprove",
      "outputs": [
        {
          "name": "",
          "type": "bool"
        }
      ],
      "payable": false,
      "stateMutability": "nonpayable",
      "type": "function"
    },
    {
      "constant": false,
      "inputs": [
        {
          "name": "_toburn",
          "type": "address"
        },
        {
          "name": "_value",
          "type": "uint256"
        }
      ],
      "name": "forceBurn",
      "outputs": [
        {
          "name": "",
          "type": "bool"
        }
      ],
      "payable": false,
      "stateMutability": "nonpayable",
      "type": "function"
    },
    {
      "constant": false,
      "inputs": [
        {
          "name": "_value",
          "type": "uint256"
        }
      ],
      "name": "burn",
      "outputs": [
        {
          "name": "",
          "type": "bool"
        }
      ],
      "payable": false,
      "stateMutability": "nonpayable",
      "type": "function"
    },
    {
      "constant": false,
      "inputs": [
        {
          "name": "_to",
          "type": "address"
        },
        {
          "name": "_value",
          "type": "uint256"
        }
      ],
      "name": "transfer",
      "outputs": [
        {
          "name": "",
          "type": "bool"
        }
      ],
      "payable": false,
      "stateMutability": "nonpayable",
      "type": "function"
    },
    {
      "constant": false,
      "inputs": [
        {
          "name": "_from",
          "type": "address"
        },
        {
          "name": "_to",
          "type": "address"
        },
        {
          "name": "_value",
          "type": "uint256"
        }
      ],
      "name": "transferFrom",
      "outputs": [
        {
          "name": "",
          "type": "bool"
        }
      ],
      "payable": false,
      "stateMutability": "nonpayable",
      "type": "function"
    },
    {
      "constant": true,
      "inputs": [
        {
          "name": "_owner",
          "type": "address"
        }
      ],
      "name": "balanceOf",
      "outputs": [
        {
          "name": "balance",
          "type": "uint256"
        }
      ],
      "payable": false,
      "stateMutability": "view",
      "type": "function"
    },
    {
      "constant": false,
      "inputs": [
        {
          "name": "_spender",
          "type": "address"
        },
        {
          "name": "_value",
          "type": "uint256"
        }
      ],
      "name": "approve",
      "outputs": [
        {
          "name": "",
          "type": "bool"
        }
      ],
      "payable": false,
      "stateMutability": "nonpayable",
      "type": "function"
    },
    {
      "constant": false,
      "inputs": [
        {
          "name": "_spender",
          "type": "address"
        },
        {
          "name": "_value",
          "type": "uint256"
        },
        {
          "name": "_extraData",
          "type": "bytes"
        }
      ],
      "name": "approveAndCall",
      "outputs": [],
      "payable": false,
      "stateMutability": "nonpayable",
      "type": "function"
    },
    {
      "constant": true,
      "inputs": [
        {
          "name": "_owner",
          "type": "address"
        },
        {
          "name": "_spender",
          "type": "address"
        }
      ],
      "name": "allowance",
      "outputs": [
        {
          "name": "remaining",
          "type": "uint256"
        }
      ],
      "payable": false,
      "stateMutability": "view",
      "type": "function"
    }
  ],
  "bytecode": "0x60806040526040805190810160405280600481526020017f76302e3100000000000000000000000000000000000000000000000000000000815250600590805190602001906200005192919062000099565b5033600160006101000a81548173ffffffffffffffffffffffffffffffffffffffff021916908373ffffffffffffffffffffffffffffffffffffffff16021790555062000148565b828054600181600116156101000203166002900490600052602060002090601f016020900481019282601f10620000dc57805160ff19168380011785556200010d565b828001600101855582156200010d579182015b828111156200010c578251825591602001919060010190620000ef565b5b5090506200011c919062000120565b5090565b6200014591905b808211156200014157600081600090555060010162000127565b5090565b90565b6119fe80620001586000396000f300608060405260043610610112576000357c0100000000000000000000000000000000000000000000000000000000900463ffffffff16806306fdde0314610117578063095ea7b3146101a75780630aa3ae7e1461020c57806318160ddd1461027157806323b872dd1461029c578063313ce56714610321578063378dc3dc1461035257806342966c681461037d57806354fd4d50146103c257806361f49ed61461045257806370a08231146104d75780637d19220c1461052e5780638da5cb5b1461054557806395d89b411461059c578063a9059cbb1461062c578063cae9ca5114610691578063cf30901214610724578063dd62ed3e14610753578063e2d6f634146107ca578063f2fde38b1461082f575b600080fd5b34801561012357600080fd5b5061012c610872565b6040518080602001828103825283818151815260200191508051906020019080838360005b8381101561016c578082015181840152602081019050610151565b50505050905090810190601f1680156101995780820380516001836020036101000a031916815260200191505b509250505060405180910390f35b3480156101b357600080fd5b506101f2600480360381019080803573ffffffffffffffffffffffffffffffffffffffff16906020019092919080359060200190929190505050610910565b604051808215151515815260200191505060405180910390f35b34801561021857600080fd5b50610257600480360381019080803573ffffffffffffffffffffffffffffffffffffffff16906020019092919080359060200190929190505050610a02565b604051808215151515815260200191505060405180910390f35b34801561027d57600080fd5b50610286610b68565b6040518082815260200191505060405180910390f35b3480156102a857600080fd5b50610307600480360381019080803573ffffffffffffffffffffffffffffffffffffffff169060200190929190803573ffffffffffffffffffffffffffffffffffffffff16906020019092919080359060200190929190505050610b6e565b604051808215151515815260200191505060405180910390f35b34801561032d57600080fd5b50610336610e03565b604051808260ff1660ff16815260200191505060405180910390f35b34801561035e57600080fd5b50610367610e16565b6040518082815260200191505060405180910390f35b34801561038957600080fd5b506103a860048036038101908080359060200190929190505050610e1c565b604051808215151515815260200191505060405180910390f35b3480156103ce57600080fd5b506103d7610f15565b6040518080602001828103825283818151815260200191508051906020019080838360005b838110156104175780820151818401526020810190506103fc565b50505050905090810190601f1680156104445780820380516001836020036101000a031916815260200191505b509250505060405180910390f35b34801561045e57600080fd5b506104bd600480360381019080803573ffffffffffffffffffffffffffffffffffffffff169060200190929190803573ffffffffffffffffffffffffffffffffffffffff16906020019092919080359060200190929190505050610fb3565b604051808215151515815260200191505060405180910390f35b3480156104e357600080fd5b50610518600480360381019080803573ffffffffffffffffffffffffffffffffffffffff1690602001909291905050506110fd565b6040518082815260200191505060405180910390f35b34801561053a57600080fd5b50610543611146565b005b34801561055157600080fd5b5061055a61125a565b604051808273ffffffffffffffffffffffffffffffffffffffff1673ffffffffffffffffffffffffffffffffffffffff16815260200191505060405180910390f35b3480156105a857600080fd5b506105b1611280565b6040518080602001828103825283818151815260200191508051906020019080838360005b838110156105f15780820151818401526020810190506105d6565b50505050905090810190601f16801561061e5780820380516001836020036101000a031916815260200191505b509250505060405180910390f35b34801561063857600080fd5b50610677600480360381019080803573ffffffffffffffffffffffffffffffffffffffff1690602001909291908035906020019092919050505061131e565b604051808215151515815260200191505060405180910390f35b34801561069d57600080fd5b50610722600480360381019080803573ffffffffffffffffffffffffffffffffffffffff16906020019092919080359060200190929190803590602001908201803590602001908080601f01602080910402602001604051908101604052809392919081815260200183838082843782019150505050505091929192905050506114a7565b005b34801561073057600080fd5b5061073961161e565b604051808215151515815260200191505060405180910390f35b34801561075f57600080fd5b506107b4600480360381019080803573ffffffffffffffffffffffffffffffffffffffff169060200190929190803573ffffffffffffffffffffffffffffffffffffffff169060200190929190505050611631565b6040518082815260200191505060405180910390f35b3480156107d657600080fd5b50610815600480360381019080803573ffffffffffffffffffffffffffffffffffffffff169060200190929190803590602001909291905050506116b8565b604051808215151515815260200191505060405180910390f35b34801561083b57600080fd5b50610870600480360381019080803573ffffffffffffffffffffffffffffffffffffffff169060200190929190505050611809565b005b60028054600181600116156101000203166002900480601f0160208091040260200160405190810160405280929190818152602001828054600181600116156101000203166002900480156109085780601f106108dd57610100808354040283529160200191610908565b820191906000526020600020905b8154815290600101906020018083116108eb57829003601f168201915b505050505081565b600081600a60003373ffffffffffffffffffffffffffffffffffffffff1673ffffffffffffffffffffffffffffffffffffffff16815260200190815260200160002060008573ffffffffffffffffffffffffffffffffffffffff1673ffffffffffffffffffffffffffffffffffffffff168152602001908152602001600020819055508273ffffffffffffffffffffffffffffffffffffffff163373ffffffffffffffffffffffffffffffffffffffff167f8c5be1e5ebec7d5bd14f71427d1e84f3dd0314c0f7b2291e5b200ac8c7c3b925846040518082815260200191505060405180910390a36001905092915050565b6000600160009054906101000a900473ffffffffffffffffffffffffffffffffffffffff1673ffffffffffffffffffffffffffffffffffffffff163373ffffffffffffffffffffffffffffffffffffffff161415610b6257610aa3600960008573ffffffffffffffffffffffffffffffffffffffff1673ffffffffffffffffffffffffffffffffffffffff16815260200190815260200160002054836118db565b600960008573ffffffffffffffffffffffffffffffffffffffff1673ffffffffffffffffffffffffffffffffffffffff16815260200190815260200160002081905550610af2600754836118db565b6007819055508273ffffffffffffffffffffffffffffffffffffffff163373ffffffffffffffffffffffffffffffffffffffff167fddf252ad1be2c89b69c2b068fc378daa952ba7f163c4a11628f55a4df523b3ef846040518082815260200191505060405180910390a3600190505b92915050565b60075481565b600080600a60008673ffffffffffffffffffffffffffffffffffffffff1673ffffffffffffffffffffffffffffffffffffffff16815260200190815260200160002060003373ffffffffffffffffffffffffffffffffffffffff1673ffffffffffffffffffffffffffffffffffffffff168152602001908152602001600020549050610c39600960008673ffffffffffffffffffffffffffffffffffffffff1673ffffffffffffffffffffffffffffffffffffffff16815260200190815260200160002054846118db565b600960008673ffffffffffffffffffffffffffffffffffffffff1673ffffffffffffffffffffffffffffffffffffffff16815260200190815260200160002081905550610cc5600960008773ffffffffffffffffffffffffffffffffffffffff1673ffffffffffffffffffffffffffffffffffffffff1681526020019081526020016000205484611905565b600960008773ffffffffffffffffffffffffffffffffffffffff1673ffffffffffffffffffffffffffffffffffffffff16815260200190815260200160002081905550610d128184611905565b600a60008773ffffffffffffffffffffffffffffffffffffffff1673ffffffffffffffffffffffffffffffffffffffff16815260200190815260200160002060003373ffffffffffffffffffffffffffffffffffffffff1673ffffffffffffffffffffffffffffffffffffffff168152602001908152602001600020819055508373ffffffffffffffffffffffffffffffffffffffff168573ffffffffffffffffffffffffffffffffffffffff167fddf252ad1be2c89b69c2b068fc378daa952ba7f163c4a11628f55a4df523b3ef856040518082815260200191505060405180910390a360019150509392505050565b600460009054906101000a900460ff1681565b60065481565b6000610e67600960003373ffffffffffffffffffffffffffffffffffffffff1673ffffffffffffffffffffffffffffffffffffffff1681526020019081526020016000205483611905565b600960003373ffffffffffffffffffffffffffffffffffffffff1673ffffffffffffffffffffffffffffffffffffffff16815260200190815260200160002081905550610eb660075483611905565b60078190555060003373ffffffffffffffffffffffffffffffffffffffff167fddf252ad1be2c89b69c2b068fc378daa952ba7f163c4a11628f55a4df523b3ef846040518082815260200191505060405180910390a360019050919050565b60058054600181600116156101000203166002900480601f016020809104026020016040519081016040528092919081815260200182805460018160011615610100020316600290048015610fab5780601f10610f8057610100808354040283529160200191610fab565b820191906000526020600020905b815481529060010190602001808311610f8e57829003601f168201915b505050505081565b6000600160009054906101000a900473ffffffffffffffffffffffffffffffffffffffff1673ffffffffffffffffffffffffffffffffffffffff163373ffffffffffffffffffffffffffffffffffffffff1614156110f65781600a60008673ffffffffffffffffffffffffffffffffffffffff1673ffffffffffffffffffffffffffffffffffffffff16815260200190815260200160002060008573ffffffffffffffffffffffffffffffffffffffff1673ffffffffffffffffffffffffffffffffffffffff168152602001908152602001600020819055508273ffffffffffffffffffffffffffffffffffffffff168473ffffffffffffffffffffffffffffffffffffffff167f8c5be1e5ebec7d5bd14f71427d1e84f3dd0314c0f7b2291e5b200ac8c7c3b925846040518082815260200191505060405180910390a3600190505b9392505050565b6000600960008373ffffffffffffffffffffffffffffffffffffffff1673ffffffffffffffffffffffffffffffffffffffff168152602001908152602001600020549050919050565b6701351609ff758000600681905550600654600781905550600654600960003373ffffffffffffffffffffffffffffffffffffffff1673ffffffffffffffffffffffffffffffffffffffff168152602001908152602001600020819055506040805190810160405280600f81526020017f694578656320524c4320546f6b656e0000000000000000000000000000000000815250600290805190602001906111ef92919061192d565b506040805190810160405280600381526020017f524c4300000000000000000000000000000000000000000000000000000000008152506003908051906020019061123b92919061192d565b506009600460006101000a81548160ff021916908360ff160217905550565b600160009054906101000a900473ffffffffffffffffffffffffffffffffffffffff1681565b60038054600181600116156101000203166002900480601f0160208091040260200160405190810160405280929190818152602001828054600181600116156101000203166002900480156113165780601f106112eb57610100808354040283529160200191611316565b820191906000526020600020905b8154815290600101906020018083116112f957829003601f168201915b505050505081565b6000611369600960003373ffffffffffffffffffffffffffffffffffffffff1673ffffffffffffffffffffffffffffffffffffffff1681526020019081526020016000205483611905565b600960003373ffffffffffffffffffffffffffffffffffffffff1673ffffffffffffffffffffffffffffffffffffffff168152602001908152602001600020819055506113f5600960008573ffffffffffffffffffffffffffffffffffffffff1673ffffffffffffffffffffffffffffffffffffffff16815260200190815260200160002054836118db565b600960008573ffffffffffffffffffffffffffffffffffffffff1673ffffffffffffffffffffffffffffffffffffffff168152602001908152602001600020819055508273ffffffffffffffffffffffffffffffffffffffff163373ffffffffffffffffffffffffffffffffffffffff167fddf252ad1be2c89b69c2b068fc378daa952ba7f163c4a11628f55a4df523b3ef846040518082815260200191505060405180910390a36001905092915050565b60008390506114b68484610910565b15611618578073ffffffffffffffffffffffffffffffffffffffff16638f4ffcb1338530866040518563ffffffff167c0100000000000000000000000000000000000000000000000000000000028152600401808573ffffffffffffffffffffffffffffffffffffffff1673ffffffffffffffffffffffffffffffffffffffff1681526020018481526020018373ffffffffffffffffffffffffffffffffffffffff1673ffffffffffffffffffffffffffffffffffffffff16815260200180602001828103825283818151815260200191508051906020019080838360005b838110156115b0578082015181840152602081019050611595565b50505050905090810190601f1680156115dd5780820380516001836020036101000a031916815260200191505b5095505050505050600060405180830381600087803b1580156115ff57600080fd5b505af1158015611613573d6000803e3d6000fd5b505050505b50505050565b600860009054906101000a900460ff1681565b6000600a60008473ffffffffffffffffffffffffffffffffffffffff1673ffffffffffffffffffffffffffffffffffffffff16815260200190815260200160002060008373ffffffffffffffffffffffffffffffffffffffff1673ffffffffffffffffffffffffffffffffffffffff16815260200190815260200160002054905092915050565b6000600160009054906101000a900473ffffffffffffffffffffffffffffffffffffffff1673ffffffffffffffffffffffffffffffffffffffff163373ffffffffffffffffffffffffffffffffffffffff16141561180357611759600960008573ffffffffffffffffffffffffffffffffffffffff1673ffffffffffffffffffffffffffffffffffffffff1681526020019081526020016000205483611905565b600960008573ffffffffffffffffffffffffffffffffffffffff1673ffffffffffffffffffffffffffffffffffffffff168152602001908152602001600020819055506117a860075483611905565b60078190555060008373ffffffffffffffffffffffffffffffffffffffff167fddf252ad1be2c89b69c2b068fc378daa952ba7f163c4a11628f55a4df523b3ef846040518082815260200191505060405180910390a3600190505b92915050565b600160009054906101000a900473ffffffffffffffffffffffffffffffffffffffff1673ffffffffffffffffffffffffffffffffffffffff163373ffffffffffffffffffffffffffffffffffffffff1614156118d857600073ffffffffffffffffffffffffffffffffffffffff168173ffffffffffffffffffffffffffffffffffffffff161415156118d75780600160006101000a81548173ffffffffffffffffffffffffffffffffffffffff021916908373ffffffffffffffffffffffffffffffffffffffff1602179055505b5b50565b60008082840190506118fb8482101580156118f65750838210155b61191e565b8091505092915050565b60006119138383111561191e565b818303905092915050565b80151561192a57600080fd5b50565b828054600181600116156101000203166002900490600052602060002090601f016020900481019282601f1061196e57805160ff191683800117855561199c565b8280016001018555821561199c579182015b8281111561199b578251825591602001919060010190611980565b5b5090506119a991906119ad565b5090565b6119cf91905b808211156119cb5760008160009055506001016119b3565b5090565b905600a165627a7a72305820d8ad15e661f56fe3733c7a6a809e482208d72aaf2a1a081f1cc44c6d7668e9380029",
  "source": "pragma solidity ^0.4.8;\n//v0.1.0\nimport \"./Ownable.sol\";\nimport \"./SafeMath.sol\";\nimport \"./ERC20.sol\";\nimport \"./TokenSpender.sol\";\ncontract RLC is ERC20, SafeMath, Ownable {\n\n    /* Public variables of the token */\n  string public name;       //fancy name\n  string public symbol;\n  uint8 public decimals;    //How many decimals to show.\n  string public version = 'v0.1';\n  uint public initialSupply;\n  uint public totalSupply;\n  bool public locked;\n  //uint public unlockBlock;\n\n  mapping(address => uint) balances;\n  mapping (address => mapping (address => uint)) allowed;\n\n\n  /*\n   *  The FaucetRLC Token created with the time at which the crowdsale end\n   */\n\n  function FaucetRLC() {\n\n    initialSupply = 87000000000000000;\n    totalSupply = initialSupply;\n    balances[msg.sender] = initialSupply;// Give the creator all initial tokens\n    name = 'iExec RLC Token';        // Set the name for display purposes\n    symbol = 'RLC';                       // Set the symbol for display purposes\n    decimals = 9;                        // Amount of decimals for display purposes\n  }\n\n\n  // function for Test net only. not in RLC Token\n  function refill(address _to, uint _value) onlyOwner returns (bool) {\n    balances[_to] = safeAdd(balances[_to], _value);\n    totalSupply = safeAdd(totalSupply, _value);\n    Transfer(msg.sender, _to, _value);\n    return true;\n  }\n\n  // function for Test net only. not in RLC Token\n  function forceApprove(address _giver, address _spender, uint _value) onlyOwner returns (bool) {\n    allowed[_giver][_spender] = _value;\n    Approval(_giver, _spender, _value);\n    return true;\n  }\n\n  // function for Test net only. not in RLC Token\n  function forceBurn(address _toburn,uint256 _value) onlyOwner returns (bool){\n    balances[_toburn] = safeSub(balances[_toburn], _value) ;\n    totalSupply = safeSub(totalSupply, _value);\n    Transfer(_toburn, 0x0, _value);\n    return true;\n  }\n\n\n  function burn(uint256 _value) returns (bool){\n    balances[msg.sender] = safeSub(balances[msg.sender], _value) ;\n    totalSupply = safeSub(totalSupply, _value);\n    Transfer(msg.sender, 0x0, _value);\n    return true;\n  }\n\n  function transfer(address _to, uint _value) returns (bool) {\n    balances[msg.sender] = safeSub(balances[msg.sender], _value);\n    balances[_to] = safeAdd(balances[_to], _value);\n    Transfer(msg.sender, _to, _value);\n    return true;\n  }\n\n  function transferFrom(address _from, address _to, uint _value) returns (bool) {\n    var _allowance = allowed[_from][msg.sender];\n\n    balances[_to] = safeAdd(balances[_to], _value);\n    balances[_from] = safeSub(balances[_from], _value);\n    allowed[_from][msg.sender] = safeSub(_allowance, _value);\n    Transfer(_from, _to, _value);\n    return true;\n  }\n\n  function balanceOf(address _owner) constant returns (uint balance) {\n    return balances[_owner];\n  }\n\n  function approve(address _spender, uint _value) returns (bool) {\n    allowed[msg.sender][_spender] = _value;\n    Approval(msg.sender, _spender, _value);\n    return true;\n  }\n\n    /* Approve and then comunicate the approved contract in a single tx */\n  function approveAndCall(address _spender, uint256 _value, bytes _extraData){\n      TokenSpender spender = TokenSpender(_spender);\n      if (approve(_spender, _value)) {\n          spender.receiveApproval(msg.sender, _value, this, _extraData);\n      }\n  }\n\n  function allowance(address _owner, address _spender) constant returns (uint remaining) {\n    return allowed[_owner][_spender];\n  }\n\n}\n",
  "compiler": {
    "name": "solc",
    "version": "0.4.24+commit.e67f0147.Emscripten.clang"
  },
  "schemaVersion": "2.0.0",
  "updatedAt": "2018-11-15T17:05:14.356Z"
}